{
  "_format": "hh-sol-artifact-1",
  "contractName": "LPPair",
  "sourceName": "contracts/liquidity-pools/LPPair.sol",
  "abi": [
    {
      "inputs": [],
      "stateMutability": "nonpayable",
      "type": "constructor"
    },
    {
      "anonymous": false,
      "inputs": [
        {
          "indexed": true,
          "internalType": "address",
          "name": "owner",
          "type": "address"
        },
        {
          "indexed": true,
          "internalType": "address",
          "name": "spender",
          "type": "address"
        },
        {
          "indexed": false,
          "internalType": "uint256",
          "name": "value",
          "type": "uint256"
        }
      ],
      "name": "Approval",
      "type": "event"
    },
    {
      "anonymous": false,
      "inputs": [
        {
          "indexed": true,
          "internalType": "address",
          "name": "sender",
          "type": "address"
        },
        {
          "indexed": false,
          "internalType": "uint256",
          "name": "amount0",
          "type": "uint256"
        },
        {
          "indexed": false,
          "internalType": "uint256",
          "name": "amount1",
          "type": "uint256"
        },
        {
          "indexed": true,
          "internalType": "address",
          "name": "to",
          "type": "address"
        }
      ],
      "name": "Burn",
      "type": "event"
    },
    {
      "anonymous": false,
      "inputs": [
        {
          "indexed": true,
          "internalType": "address",
          "name": "sender",
          "type": "address"
        },
        {
          "indexed": false,
          "internalType": "uint256",
          "name": "amount0",
          "type": "uint256"
        },
        {
          "indexed": false,
          "internalType": "uint256",
          "name": "amount1",
          "type": "uint256"
        }
      ],
      "name": "Mint",
      "type": "event"
    },
    {
      "anonymous": false,
      "inputs": [
        {
          "indexed": true,
          "internalType": "address",
          "name": "sender",
          "type": "address"
        },
        {
          "indexed": false,
          "internalType": "uint256",
          "name": "amount0In",
          "type": "uint256"
        },
        {
          "indexed": false,
          "internalType": "uint256",
          "name": "amount1In",
          "type": "uint256"
        },
        {
          "indexed": false,
          "internalType": "uint256",
          "name": "amount0Out",
          "type": "uint256"
        },
        {
          "indexed": false,
          "internalType": "uint256",
          "name": "amount1Out",
          "type": "uint256"
        },
        {
          "indexed": true,
          "internalType": "address",
          "name": "to",
          "type": "address"
        }
      ],
      "name": "Swap",
      "type": "event"
    },
    {
      "anonymous": false,
      "inputs": [
        {
          "indexed": false,
          "internalType": "uint112",
          "name": "reserve0",
          "type": "uint112"
        },
        {
          "indexed": false,
          "internalType": "uint112",
          "name": "reserve1",
          "type": "uint112"
        }
      ],
      "name": "Sync",
      "type": "event"
    },
    {
      "anonymous": false,
      "inputs": [
        {
          "indexed": true,
          "internalType": "address",
          "name": "from",
          "type": "address"
        },
        {
          "indexed": true,
          "internalType": "address",
          "name": "to",
          "type": "address"
        },
        {
          "indexed": false,
          "internalType": "uint256",
          "name": "value",
          "type": "uint256"
        }
      ],
      "name": "Transfer",
      "type": "event"
    },
    {
      "inputs": [],
      "name": "DOMAIN_SEPARATOR",
      "outputs": [
        {
          "internalType": "bytes32",
          "name": "",
          "type": "bytes32"
        }
      ],
      "stateMutability": "view",
      "type": "function"
    },
    {
      "inputs": [],
      "name": "MINIMUM_LIQUIDITY",
      "outputs": [
        {
          "internalType": "uint256",
          "name": "",
          "type": "uint256"
        }
      ],
      "stateMutability": "view",
      "type": "function"
    },
    {
      "inputs": [],
      "name": "PERMIT_TYPEHASH",
      "outputs": [
        {
          "internalType": "bytes32",
          "name": "",
          "type": "bytes32"
        }
      ],
      "stateMutability": "view",
      "type": "function"
    },
    {
      "inputs": [],
      "name": "UINT_MAX",
      "outputs": [
        {
          "internalType": "uint256",
          "name": "",
          "type": "uint256"
        }
      ],
      "stateMutability": "view",
      "type": "function"
    },
    {
      "inputs": [
        {
          "internalType": "address",
          "name": "",
          "type": "address"
        },
        {
          "internalType": "address",
          "name": "",
          "type": "address"
        }
      ],
      "name": "allowance",
      "outputs": [
        {
          "internalType": "uint256",
          "name": "",
          "type": "uint256"
        }
      ],
      "stateMutability": "view",
      "type": "function"
    },
    {
      "inputs": [
        {
          "internalType": "address",
          "name": "spender",
          "type": "address"
        },
        {
          "internalType": "uint256",
          "name": "value",
          "type": "uint256"
        }
      ],
      "name": "approve",
      "outputs": [
        {
          "internalType": "bool",
          "name": "",
          "type": "bool"
        }
      ],
      "stateMutability": "nonpayable",
      "type": "function"
    },
    {
      "inputs": [
        {
          "internalType": "address",
          "name": "",
          "type": "address"
        }
      ],
      "name": "balanceOf",
      "outputs": [
        {
          "internalType": "uint256",
          "name": "",
          "type": "uint256"
        }
      ],
      "stateMutability": "view",
      "type": "function"
    },
    {
      "inputs": [
        {
          "internalType": "address",
          "name": "to",
          "type": "address"
        }
      ],
      "name": "burn",
      "outputs": [
        {
          "internalType": "uint256",
          "name": "amount0",
          "type": "uint256"
        },
        {
          "internalType": "uint256",
          "name": "amount1",
          "type": "uint256"
        }
      ],
      "stateMutability": "nonpayable",
      "type": "function"
    },
    {
      "inputs": [],
      "name": "decimals",
      "outputs": [
        {
          "internalType": "uint8",
          "name": "",
          "type": "uint8"
        }
      ],
      "stateMutability": "view",
      "type": "function"
    },
    {
      "inputs": [],
      "name": "factory",
      "outputs": [
        {
          "internalType": "address",
          "name": "",
          "type": "address"
        }
      ],
      "stateMutability": "view",
      "type": "function"
    },
    {
      "inputs": [],
      "name": "getReserves",
      "outputs": [
        {
          "internalType": "uint112",
          "name": "_reserve0",
          "type": "uint112"
        },
        {
          "internalType": "uint112",
          "name": "_reserve1",
          "type": "uint112"
        },
        {
          "internalType": "uint32",
          "name": "_blockTimestampLast",
          "type": "uint32"
        }
      ],
      "stateMutability": "view",
      "type": "function"
    },
    {
      "inputs": [
        {
          "internalType": "address",
          "name": "_token0",
          "type": "address"
        },
        {
          "internalType": "address",
          "name": "_token1",
          "type": "address"
        }
      ],
      "name": "initialize",
      "outputs": [],
      "stateMutability": "nonpayable",
      "type": "function"
    },
    {
      "inputs": [],
      "name": "kLast",
      "outputs": [
        {
          "internalType": "uint256",
          "name": "",
          "type": "uint256"
        }
      ],
      "stateMutability": "view",
      "type": "function"
    },
    {
      "inputs": [
        {
          "internalType": "address",
          "name": "to",
          "type": "address"
        }
      ],
      "name": "mint",
      "outputs": [
        {
          "internalType": "uint256",
          "name": "liquidity",
          "type": "uint256"
        }
      ],
      "stateMutability": "nonpayable",
      "type": "function"
    },
    {
      "inputs": [],
      "name": "name",
      "outputs": [
        {
          "internalType": "string",
          "name": "",
          "type": "string"
        }
      ],
      "stateMutability": "view",
      "type": "function"
    },
    {
      "inputs": [
        {
          "internalType": "address",
          "name": "",
          "type": "address"
        }
      ],
      "name": "nonces",
      "outputs": [
        {
          "internalType": "uint256",
          "name": "",
          "type": "uint256"
        }
      ],
      "stateMutability": "view",
      "type": "function"
    },
    {
      "inputs": [
        {
          "internalType": "address",
          "name": "owner",
          "type": "address"
        },
        {
          "internalType": "address",
          "name": "spender",
          "type": "address"
        },
        {
          "internalType": "uint256",
          "name": "value",
          "type": "uint256"
        },
        {
          "internalType": "uint256",
          "name": "deadline",
          "type": "uint256"
        },
        {
          "internalType": "uint8",
          "name": "v",
          "type": "uint8"
        },
        {
          "internalType": "bytes32",
          "name": "r",
          "type": "bytes32"
        },
        {
          "internalType": "bytes32",
          "name": "s",
          "type": "bytes32"
        }
      ],
      "name": "permit",
      "outputs": [],
      "stateMutability": "nonpayable",
      "type": "function"
    },
    {
      "inputs": [],
      "name": "price0CumulativeLast",
      "outputs": [
        {
          "internalType": "uint256",
          "name": "",
          "type": "uint256"
        }
      ],
      "stateMutability": "view",
      "type": "function"
    },
    {
      "inputs": [],
      "name": "price1CumulativeLast",
      "outputs": [
        {
          "internalType": "uint256",
          "name": "",
          "type": "uint256"
        }
      ],
      "stateMutability": "view",
      "type": "function"
    },
    {
      "inputs": [
        {
          "internalType": "address",
          "name": "to",
          "type": "address"
        }
      ],
      "name": "skim",
      "outputs": [],
      "stateMutability": "nonpayable",
      "type": "function"
    },
    {
      "inputs": [
        {
          "internalType": "uint256",
          "name": "amount0Out",
          "type": "uint256"
        },
        {
          "internalType": "uint256",
          "name": "amount1Out",
          "type": "uint256"
        },
        {
          "internalType": "address",
          "name": "to",
          "type": "address"
        },
        {
          "internalType": "bytes",
          "name": "data",
          "type": "bytes"
        }
      ],
      "name": "swap",
      "outputs": [],
      "stateMutability": "nonpayable",
      "type": "function"
    },
    {
      "inputs": [],
      "name": "symbol",
      "outputs": [
        {
          "internalType": "string",
          "name": "",
          "type": "string"
        }
      ],
      "stateMutability": "view",
      "type": "function"
    },
    {
      "inputs": [],
      "name": "sync",
      "outputs": [],
      "stateMutability": "nonpayable",
      "type": "function"
    },
    {
      "inputs": [],
      "name": "token0",
      "outputs": [
        {
          "internalType": "address",
          "name": "",
          "type": "address"
        }
      ],
      "stateMutability": "view",
      "type": "function"
    },
    {
      "inputs": [],
      "name": "token1",
      "outputs": [
        {
          "internalType": "address",
          "name": "",
          "type": "address"
        }
      ],
      "stateMutability": "view",
      "type": "function"
    },
    {
      "inputs": [],
      "name": "totalSupply",
      "outputs": [
        {
          "internalType": "uint256",
          "name": "",
          "type": "uint256"
        }
      ],
      "stateMutability": "view",
      "type": "function"
    },
    {
      "inputs": [
        {
          "internalType": "address",
          "name": "to",
          "type": "address"
        },
        {
          "internalType": "uint256",
          "name": "value",
          "type": "uint256"
        }
      ],
      "name": "transfer",
      "outputs": [
        {
          "internalType": "bool",
          "name": "",
          "type": "bool"
        }
      ],
      "stateMutability": "nonpayable",
      "type": "function"
    },
    {
      "inputs": [
        {
          "internalType": "address",
          "name": "from",
          "type": "address"
        },
        {
          "internalType": "address",
          "name": "to",
          "type": "address"
        },
        {
          "internalType": "uint256",
          "name": "value",
          "type": "uint256"
        }
      ],
      "name": "transferFrom",
      "outputs": [
        {
          "internalType": "bool",
          "name": "",
          "type": "bool"
        }
      ],
      "stateMutability": "nonpayable",
      "type": "function"
    }
  ],
  "bytecode": "0x60806040526001600c5534801561001557600080fd5b50604080518082018252600a81526920ab20aa20902830b4b960b11b6020918201528151808301835260018152603160f81b9082015281517f8b73c3c69bb8fe3d512ecc4cf759cc79239f7b179b0ffacaa9a75d522b39400f818301527f8d9b4d46f167a144ae7c54a4033abb95251890576e67a5e063049b804999574e818401527fc89efdaa54c0f20c7adf612882df0950f5a951637e0307cdcb4c672f298b8bc660608201524660808201523060a0808301919091528351808303909101815260c09091019092528151910120600355600580546001600160a01b0319163317905561219c806101086000396000f3fe608060405234801561001057600080fd5b50600436106101c45760003560e01c806370a08231116100f9578063ba9a7a5611610097578063d21220a711610071578063d21220a71461042c578063d505accf1461043f578063dd62ed3e14610452578063fff6cae91461047d57600080fd5b8063ba9a7a56146103fd578063bc25cf7714610406578063c45a01551461041957600080fd5b80637ecebe00116100d35780637ecebe001461037d57806389afcb441461039d57806395d89b41146103c5578063a9059cbb146103ea57600080fd5b806370a082311461034b5780637464fc3d1461036b578063782d2b531461037457600080fd5b806330adf81f11610166578063485cc95511610140578063485cc955146103135780635909c0d5146103265780635a3d54931461032f5780636a6278421461033857600080fd5b806330adf81f146102c9578063313ce567146102f05780633644e5151461030a57600080fd5b8063095ea7b3116101a2578063095ea7b3146102515780630dfe16811461027457806318160ddd1461029f57806323b872dd146102b657600080fd5b8063022c0d9f146101c957806306fdde03146101de5780630902f1ac1461021d575b600080fd5b6101dc6101d7366004611d18565b610485565b005b6102076040518060400160405280600a81526020016920ab20aa20902830b4b960b11b81525081565b6040516102149190611dde565b60405180910390f35b610225610959565b604080516001600160701b03948516815293909216602084015263ffffffff1690820152606001610214565b61026461025f366004611e11565b610983565b6040519015158152602001610214565b600654610287906001600160a01b031681565b6040516001600160a01b039091168152602001610214565b6102a860005481565b604051908152602001610214565b6102646102c4366004611e3d565b61099a565b6102a87f6e71edae12b1b97f4d1f60370fef10105fa2faae0126114a169c64845d6126c981565b6102f8601281565b60405160ff9091168152602001610214565b6102a860035481565b6101dc610321366004611e7e565b610a2e565b6102a860095481565b6102a8600a5481565b6102a8610346366004611eb7565b610aa6565b6102a8610359366004611eb7565b60016020526000908152604090205481565b6102a8600b5481565b6102a860001981565b6102a861038b366004611eb7565b60046020526000908152604090205481565b6103b06103ab366004611eb7565b610d64565b60408051928352602083019190915201610214565b610207604051806040016040528060068152602001650415641544c560d41b81525081565b6102646103f8366004611e11565b6110c3565b6102a86103e881565b6101dc610414366004611eb7565b6110d0565b600554610287906001600160a01b031681565b600754610287906001600160a01b031681565b6101dc61044d366004611ed4565b6111e4565b6102a8610460366004611e7e565b600260209081526000928352604080842090915290825290205481565b6101dc6113e9565b600c546001146104b05760405162461bcd60e51b81526004016104a790611f4b565b60405180910390fd5b6000600c55841515806104c35750600084115b61050f5760405162461bcd60e51b815260206004820152601e60248201527f4c503a20494e53554646494349454e545f4f55545055545f414d4f554e54000060448201526064016104a7565b60008061051a610959565b5091509150816001600160701b03168710801561053f5750806001600160701b031686105b61058b5760405162461bcd60e51b815260206004820152601a60248201527f4c503a20494e53554646494349454e545f4c495155494449545900000000000060448201526064016104a7565b60065460075460009182916001600160a01b039182169190811690891682148015906105c95750806001600160a01b0316896001600160a01b031614155b6106065760405162461bcd60e51b815260206004820152600e60248201526d4c503a20494e56414c49445f544f60901b60448201526064016104a7565b8a1561061757610617828a8d61150d565b891561062857610628818a8c61150d565b86156106955760405163122ef1c160e21b81526001600160a01b038a16906348bbc704906106629033908f908f908e908e90600401611f6f565b600060405180830381600087803b15801561067c57600080fd5b505af1158015610690573d6000803e3d6000fd5b505050505b6040516370a0823160e01b81523060048201526001600160a01b038316906370a0823190602401602060405180830381865afa1580156106d9573d6000803e3d6000fd5b505050506040513d601f19601f820116820180604052508101906106fd9190611fbb565b6040516370a0823160e01b81523060048201529094506001600160a01b038216906370a0823190602401602060405180830381865afa158015610744573d6000803e3d6000fd5b505050506040513d601f19601f820116820180604052508101906107689190611fbb565b92505050600089856001600160701b03166107839190611fea565b83116107905760006107ad565b6107a38a6001600160701b038716611fea565b6107ad9084611fea565b905060006107c48a6001600160701b038716611fea565b83116107d15760006107ee565b6107e48a6001600160701b038716611fea565b6107ee9084611fea565b905060008211806107ff5750600081115b61084b5760405162461bcd60e51b815260206004820152601d60248201527f4c503a20494e53554646494349454e545f494e5055545f414d4f554e5400000060448201526064016104a7565b600061086d61085b84600361164e565b610867876103e861164e565b906116b5565b9050600061087f61085b84600361164e565b90506108a4620f424061089e6001600160701b038b8116908b1661164e565b9061164e565b6108ae838361164e565b10156108e45760405162461bcd60e51b81526020600482015260056024820152644c503a204b60d81b60448201526064016104a7565b50506108f28484888861170b565b60408051838152602081018390529081018c9052606081018b90526001600160a01b038a169033907fd78ad95fa46c994b6551d0da85fc275fe613ce37657fb8d5e3d130840159d8229060800160405180910390a350506001600c55505050505050505050565b6008546001600160701b0380821692600160701b830490911691600160e01b900463ffffffff1690565b6000610990338484611897565b5060015b92915050565b6001600160a01b038316600090815260026020908152604080832033845290915281205460001914610a19576001600160a01b03841660009081526002602090815260408083203384529091529020546109f490836116b5565b6001600160a01b03851660009081526002602090815260408083203384529091529020555b610a248484846118f9565b5060019392505050565b6005546001600160a01b03163314610a785760405162461bcd60e51b815260206004820152600d60248201526c26281d102327a92124a22222a760991b60448201526064016104a7565b600680546001600160a01b039384166001600160a01b03199182161790915560078054929093169116179055565b6000600c54600114610aca5760405162461bcd60e51b81526004016104a790611f4b565b6000600c81905580610ada610959565b506006546040516370a0823160e01b81523060048201529294509092506000916001600160a01b03909116906370a0823190602401602060405180830381865afa158015610b2c573d6000803e3d6000fd5b505050506040513d601f19601f82011682018060405250810190610b509190611fbb565b6007546040516370a0823160e01b81523060048201529192506000916001600160a01b03909116906370a0823190602401602060405180830381865afa158015610b9e573d6000803e3d6000fd5b505050506040513d601f19601f82011682018060405250810190610bc29190611fbb565b90506000610bd9836001600160701b0387166116b5565b90506000610bf0836001600160701b0387166116b5565b90506000610bfe878761199f565b60005490915080610c3557610c216103e8610867610c1c878761164e565b611adc565b9850610c3060006103e8611b4c565b610c7c565b610c796001600160701b038916610c4c868461164e565b610c569190612017565b6001600160701b038916610c6a868561164e565b610c749190612017565b611bdb565b98505b60008911610cd65760405162461bcd60e51b815260206004820152602160248201527f4c503a20494e53554646494349454e545f4c49515549444954595f4d494e54456044820152601160fa1b60648201526084016104a7565b610ce08a8a611b4c565b610cec86868a8a61170b565b8115610d1657600854610d12906001600160701b0380821691600160701b90041661164e565b600b555b604080518581526020810185905233917f4c209b5fc8ad50758f13e2e1088ba56a560dff690a1c6fef26394f4c03821c4f910160405180910390a250506001600c5550949695505050505050565b600080600c54600114610d895760405162461bcd60e51b81526004016104a790611f4b565b6000600c81905580610d99610959565b506006546007546040516370a0823160e01b81523060048201529395509193506001600160a01b039081169291169060009083906370a0823190602401602060405180830381865afa158015610df3573d6000803e3d6000fd5b505050506040513d601f19601f82011682018060405250810190610e179190611fbb565b6040516370a0823160e01b81523060048201529091506000906001600160a01b038416906370a0823190602401602060405180830381865afa158015610e61573d6000803e3d6000fd5b505050506040513d601f19601f82011682018060405250810190610e859190611fbb565b30600090815260016020526040812054919250610ea2888861199f565b60005490915080610eb3848761164e565b610ebd9190612017565b9a5080610eca848661164e565b610ed49190612017565b995060008b118015610ee6575060008a115b610f3c5760405162461bcd60e51b815260206004820152602160248201527f4c503a20494e53554646494349454e545f4c49515549444954595f4255524e456044820152601160fa1b60648201526084016104a7565b610f463084611bf3565b610f51878d8d61150d565b610f5c868d8c61150d565b6040516370a0823160e01b81523060048201526001600160a01b038816906370a0823190602401602060405180830381865afa158015610fa0573d6000803e3d6000fd5b505050506040513d601f19601f82011682018060405250810190610fc49190611fbb565b6040516370a0823160e01b81523060048201529095506001600160a01b038716906370a0823190602401602060405180830381865afa15801561100b573d6000803e3d6000fd5b505050506040513d601f19601f8201168201806040525081019061102f9190611fbb565b935061103d85858b8b61170b565b811561106757600854611063906001600160701b0380821691600160701b90041661164e565b600b555b604080518c8152602081018c90526001600160a01b038e169133917fdccd412f0b1252819cb1fd330b93224ca42612892bb3f4f789976e6d81936496910160405180910390a35050505050505050506001600c81905550915091565b60006109903384846118f9565b600c546001146110f25760405162461bcd60e51b81526004016104a790611f4b565b6000600c556006546007546008546040516370a0823160e01b81523060048201526001600160a01b03938416939092169161118d9184918691611188916001600160701b039091169084906370a08231906024015b602060405180830381865afa158015611164573d6000803e3d6000fd5b505050506040513d601f19601f820116820180604052508101906108679190611fbb565b61150d565b6008546040516370a0823160e01b81523060048201526111da918391869161118891600160701b9091046001600160701b0316906001600160a01b038516906370a0823190602401611147565b50506001600c5550565b428410156112225760405162461bcd60e51b815260206004820152600b60248201526a13140e881156141254915160aa1b60448201526064016104a7565b6003546001600160a01b038816600090815260046020526040812080549192917f6e71edae12b1b97f4d1f60370fef10105fa2faae0126114a169c64845d6126c9918b918b918b9190876112758361202b565b909155506040805160208101969096526001600160a01b0394851690860152929091166060840152608083015260a082015260c0810187905260e001604051602081830303815290604052805190602001206040516020016112ee92919061190160f01b81526002810192909252602282015260420190565b60408051601f198184030181528282528051602091820120600080855291840180845281905260ff88169284019290925260608301869052608083018590529092509060019060a0016020604051602081039080840390855afa158015611359573d6000803e3d6000fd5b5050604051601f1901519150506001600160a01b0381161580159061138f5750886001600160a01b0316816001600160a01b0316145b6113d35760405162461bcd60e51b81526020600482015260156024820152744c503a20494e56414c49445f5349474e415455524560581b60448201526064016104a7565b6113de898989611897565b505050505050505050565b600c5460011461140b5760405162461bcd60e51b81526004016104a790611f4b565b6000600c556006546040516370a0823160e01b8152306004820152611506916001600160a01b0316906370a0823190602401602060405180830381865afa15801561145a573d6000803e3d6000fd5b505050506040513d601f19601f8201168201806040525081019061147e9190611fbb565b6007546040516370a0823160e01b81523060048201526001600160a01b03909116906370a0823190602401602060405180830381865afa1580156114c6573d6000803e3d6000fd5b505050506040513d601f19601f820116820180604052508101906114ea9190611fbb565b6008546001600160701b0380821691600160701b90041661170b565b6001600c55565b604080518082018252601981527f7472616e7366657228616464726573732c75696e74323536290000000000000060209182015281516001600160a01b0385811660248301526044808301869052845180840390910181526064909201845291810180516001600160e01b031663a9059cbb60e01b179052915160009283928716916115999190612046565b6000604051808303816000865af19150503d80600081146115d6576040519150601f19603f3d011682016040523d82523d6000602084013e6115db565b606091505b50915091508180156116055750805115806116055750808060200190518101906116059190612062565b6116475760405162461bcd60e51b815260206004820152601360248201527213140e881514905394d1915497d19052531151606a1b60448201526064016104a7565b5050505050565b6000811580611672575082826116648183612084565b92506116709083612017565b145b6109945760405162461bcd60e51b815260206004820152601460248201527364732d6d6174682d6d756c2d6f766572666c6f7760601b60448201526064016104a7565b6000826116c28382611fea565b91508111156109945760405162461bcd60e51b815260206004820152601560248201527464732d6d6174682d7375622d756e646572666c6f7760581b60448201526064016104a7565b600061171c640100000000426120a3565b60085490915060009061173c90600160e01b900463ffffffff16836120b7565b905060008163ffffffff1611801561175c57506001600160701b03841615155b801561177057506001600160701b03831615155b156117ff578063ffffffff166117988561178986611c7d565b6001600160e01b031690611c96565b6001600160e01b03166117ab9190612084565b600960008282546117bc91906120dc565b909155505063ffffffff81166117d58461178987611c7d565b6001600160e01b03166117e89190612084565b600a60008282546117f991906120dc565b90915550505b6008805463ffffffff8416600160e01b026001600160e01b036001600160701b03898116600160701b9081026001600160e01b03199095168c83161794909417918216831794859055604080519382169282169290921783529290930490911660208201527f1c411e9a96e071241c2f21f7726b17ae89e3cab4c78be50e062b03a9fffbbad1910160405180910390a1505050505050565b6001600160a01b0383811660008181526002602090815260408083209487168084529482529182902085905590518481527f8c5be1e5ebec7d5bd14f71427d1e84f3dd0314c0f7b2291e5b200ac8c7c3b92591015b60405180910390a3505050565b6001600160a01b03831660009081526001602052604090205461191c90826116b5565b6001600160a01b03808516600090815260016020526040808220939093559084168152205461194b9082611cab565b6001600160a01b0380841660008181526001602052604090819020939093559151908516907fddf252ad1be2c89b69c2b068fc378daa952ba7f163c4a11628f55a4df523b3ef906118ec9085815260200190565b600080600560009054906101000a90046001600160a01b03166001600160a01b031663017e7e586040518163ffffffff1660e01b8152600401602060405180830381865afa1580156119f5573d6000803e3d6000fd5b505050506040513d601f19601f82011682018060405250810190611a1991906120f4565b600b546001600160a01b038216158015945091925090611ac8578015611ac3576000611a54610c1c6001600160701b0388811690881661164e565b90506000611a6183611adc565b905080821115611ac0576000611a83611a7a84846116b5565b6000549061164e565b90506000611a9c83611a9686600561164e565b90611cab565b90506000611aaa8284612017565b90508015611abc57611abc8782611b4c565b5050505b50505b611ad4565b8015611ad4576000600b555b505092915050565b60006003821115611b3d5750806000611af6600283612017565b611b019060016120dc565b90505b81811015611b3757905080600281611b1c8186612017565b611b2691906120dc565b611b309190612017565b9050611b04565b50919050565b8115611b47575060015b919050565b600054611b599082611cab565b60009081556001600160a01b038316815260016020526040902054611b7e9082611cab565b6001600160a01b0383166000818152600160205260408082209390935591519091907fddf252ad1be2c89b69c2b068fc378daa952ba7f163c4a11628f55a4df523b3ef90611bcf9085815260200190565b60405180910390a35050565b6000818310611bea5781611bec565b825b9392505050565b6001600160a01b038216600090815260016020526040902054611c1690826116b5565b6001600160a01b03831660009081526001602052604081209190915554611c3d90826116b5565b60009081556040518281526001600160a01b038416907fddf252ad1be2c89b69c2b068fc378daa952ba7f163c4a11628f55a4df523b3ef90602001611bcf565b6000610994600160701b6001600160701b038416612111565b6000611bec6001600160701b03831684612140565b600082611cb883826120dc565b91508110156109945760405162461bcd60e51b815260206004820152601460248201527364732d6d6174682d6164642d6f766572666c6f7760601b60448201526064016104a7565b6001600160a01b0381168114611d1557600080fd5b50565b600080600080600060808688031215611d3057600080fd5b85359450602086013593506040860135611d4981611d00565b9250606086013567ffffffffffffffff80821115611d6657600080fd5b818801915088601f830112611d7a57600080fd5b813581811115611d8957600080fd5b896020828501011115611d9b57600080fd5b9699959850939650602001949392505050565b60005b83811015611dc9578181015183820152602001611db1565b83811115611dd8576000848401525b50505050565b6020815260008251806020840152611dfd816040850160208701611dae565b601f01601f19169190910160400192915050565b60008060408385031215611e2457600080fd5b8235611e2f81611d00565b946020939093013593505050565b600080600060608486031215611e5257600080fd5b8335611e5d81611d00565b92506020840135611e6d81611d00565b929592945050506040919091013590565b60008060408385031215611e9157600080fd5b8235611e9c81611d00565b91506020830135611eac81611d00565b809150509250929050565b600060208284031215611ec957600080fd5b8135611bec81611d00565b600080600080600080600060e0888a031215611eef57600080fd5b8735611efa81611d00565b96506020880135611f0a81611d00565b95506040880135945060608801359350608088013560ff81168114611f2e57600080fd5b9699959850939692959460a0840135945060c09093013592915050565b6020808252600a908201526913140e881313d0d2d15160b21b604082015260600190565b60018060a01b038616815284602082015283604082015260806060820152816080820152818360a0830137600081830160a090810191909152601f909201601f19160101949350505050565b600060208284031215611fcd57600080fd5b5051919050565b634e487b7160e01b600052601160045260246000fd5b600082821015611ffc57611ffc611fd4565b500390565b634e487b7160e01b600052601260045260246000fd5b60008261202657612026612001565b500490565b600060001982141561203f5761203f611fd4565b5060010190565b60008251612058818460208701611dae565b9190910192915050565b60006020828403121561207457600080fd5b81518015158114611bec57600080fd5b600081600019048311821515161561209e5761209e611fd4565b500290565b6000826120b2576120b2612001565b500690565b600063ffffffff838116908316818110156120d4576120d4611fd4565b039392505050565b600082198211156120ef576120ef611fd4565b500190565b60006020828403121561210657600080fd5b8151611bec81611d00565b60006001600160e01b038281168482168115158284048211161561213757612137611fd4565b02949350505050565b60006001600160e01b038381168061215a5761215a612001565b9216919091049291505056fea2646970667358221220fb6768a44eec9f511480b4d9a641cb56896dc62e9d7be48e8a4c114e1fbf731b64736f6c634300080c0033",
  "deployedBytecode": "0x608060405234801561001057600080fd5b50600436106101c45760003560e01c806370a08231116100f9578063ba9a7a5611610097578063d21220a711610071578063d21220a71461042c578063d505accf1461043f578063dd62ed3e14610452578063fff6cae91461047d57600080fd5b8063ba9a7a56146103fd578063bc25cf7714610406578063c45a01551461041957600080fd5b80637ecebe00116100d35780637ecebe001461037d57806389afcb441461039d57806395d89b41146103c5578063a9059cbb146103ea57600080fd5b806370a082311461034b5780637464fc3d1461036b578063782d2b531461037457600080fd5b806330adf81f11610166578063485cc95511610140578063485cc955146103135780635909c0d5146103265780635a3d54931461032f5780636a6278421461033857600080fd5b806330adf81f146102c9578063313ce567146102f05780633644e5151461030a57600080fd5b8063095ea7b3116101a2578063095ea7b3146102515780630dfe16811461027457806318160ddd1461029f57806323b872dd146102b657600080fd5b8063022c0d9f146101c957806306fdde03146101de5780630902f1ac1461021d575b600080fd5b6101dc6101d7366004611d18565b610485565b005b6102076040518060400160405280600a81526020016920ab20aa20902830b4b960b11b81525081565b6040516102149190611dde565b60405180910390f35b610225610959565b604080516001600160701b03948516815293909216602084015263ffffffff1690820152606001610214565b61026461025f366004611e11565b610983565b6040519015158152602001610214565b600654610287906001600160a01b031681565b6040516001600160a01b039091168152602001610214565b6102a860005481565b604051908152602001610214565b6102646102c4366004611e3d565b61099a565b6102a87f6e71edae12b1b97f4d1f60370fef10105fa2faae0126114a169c64845d6126c981565b6102f8601281565b60405160ff9091168152602001610214565b6102a860035481565b6101dc610321366004611e7e565b610a2e565b6102a860095481565b6102a8600a5481565b6102a8610346366004611eb7565b610aa6565b6102a8610359366004611eb7565b60016020526000908152604090205481565b6102a8600b5481565b6102a860001981565b6102a861038b366004611eb7565b60046020526000908152604090205481565b6103b06103ab366004611eb7565b610d64565b60408051928352602083019190915201610214565b610207604051806040016040528060068152602001650415641544c560d41b81525081565b6102646103f8366004611e11565b6110c3565b6102a86103e881565b6101dc610414366004611eb7565b6110d0565b600554610287906001600160a01b031681565b600754610287906001600160a01b031681565b6101dc61044d366004611ed4565b6111e4565b6102a8610460366004611e7e565b600260209081526000928352604080842090915290825290205481565b6101dc6113e9565b600c546001146104b05760405162461bcd60e51b81526004016104a790611f4b565b60405180910390fd5b6000600c55841515806104c35750600084115b61050f5760405162461bcd60e51b815260206004820152601e60248201527f4c503a20494e53554646494349454e545f4f55545055545f414d4f554e54000060448201526064016104a7565b60008061051a610959565b5091509150816001600160701b03168710801561053f5750806001600160701b031686105b61058b5760405162461bcd60e51b815260206004820152601a60248201527f4c503a20494e53554646494349454e545f4c495155494449545900000000000060448201526064016104a7565b60065460075460009182916001600160a01b039182169190811690891682148015906105c95750806001600160a01b0316896001600160a01b031614155b6106065760405162461bcd60e51b815260206004820152600e60248201526d4c503a20494e56414c49445f544f60901b60448201526064016104a7565b8a1561061757610617828a8d61150d565b891561062857610628818a8c61150d565b86156106955760405163122ef1c160e21b81526001600160a01b038a16906348bbc704906106629033908f908f908e908e90600401611f6f565b600060405180830381600087803b15801561067c57600080fd5b505af1158015610690573d6000803e3d6000fd5b505050505b6040516370a0823160e01b81523060048201526001600160a01b038316906370a0823190602401602060405180830381865afa1580156106d9573d6000803e3d6000fd5b505050506040513d601f19601f820116820180604052508101906106fd9190611fbb565b6040516370a0823160e01b81523060048201529094506001600160a01b038216906370a0823190602401602060405180830381865afa158015610744573d6000803e3d6000fd5b505050506040513d601f19601f820116820180604052508101906107689190611fbb565b92505050600089856001600160701b03166107839190611fea565b83116107905760006107ad565b6107a38a6001600160701b038716611fea565b6107ad9084611fea565b905060006107c48a6001600160701b038716611fea565b83116107d15760006107ee565b6107e48a6001600160701b038716611fea565b6107ee9084611fea565b905060008211806107ff5750600081115b61084b5760405162461bcd60e51b815260206004820152601d60248201527f4c503a20494e53554646494349454e545f494e5055545f414d4f554e5400000060448201526064016104a7565b600061086d61085b84600361164e565b610867876103e861164e565b906116b5565b9050600061087f61085b84600361164e565b90506108a4620f424061089e6001600160701b038b8116908b1661164e565b9061164e565b6108ae838361164e565b10156108e45760405162461bcd60e51b81526020600482015260056024820152644c503a204b60d81b60448201526064016104a7565b50506108f28484888861170b565b60408051838152602081018390529081018c9052606081018b90526001600160a01b038a169033907fd78ad95fa46c994b6551d0da85fc275fe613ce37657fb8d5e3d130840159d8229060800160405180910390a350506001600c55505050505050505050565b6008546001600160701b0380821692600160701b830490911691600160e01b900463ffffffff1690565b6000610990338484611897565b5060015b92915050565b6001600160a01b038316600090815260026020908152604080832033845290915281205460001914610a19576001600160a01b03841660009081526002602090815260408083203384529091529020546109f490836116b5565b6001600160a01b03851660009081526002602090815260408083203384529091529020555b610a248484846118f9565b5060019392505050565b6005546001600160a01b03163314610a785760405162461bcd60e51b815260206004820152600d60248201526c26281d102327a92124a22222a760991b60448201526064016104a7565b600680546001600160a01b039384166001600160a01b03199182161790915560078054929093169116179055565b6000600c54600114610aca5760405162461bcd60e51b81526004016104a790611f4b565b6000600c81905580610ada610959565b506006546040516370a0823160e01b81523060048201529294509092506000916001600160a01b03909116906370a0823190602401602060405180830381865afa158015610b2c573d6000803e3d6000fd5b505050506040513d601f19601f82011682018060405250810190610b509190611fbb565b6007546040516370a0823160e01b81523060048201529192506000916001600160a01b03909116906370a0823190602401602060405180830381865afa158015610b9e573d6000803e3d6000fd5b505050506040513d601f19601f82011682018060405250810190610bc29190611fbb565b90506000610bd9836001600160701b0387166116b5565b90506000610bf0836001600160701b0387166116b5565b90506000610bfe878761199f565b60005490915080610c3557610c216103e8610867610c1c878761164e565b611adc565b9850610c3060006103e8611b4c565b610c7c565b610c796001600160701b038916610c4c868461164e565b610c569190612017565b6001600160701b038916610c6a868561164e565b610c749190612017565b611bdb565b98505b60008911610cd65760405162461bcd60e51b815260206004820152602160248201527f4c503a20494e53554646494349454e545f4c49515549444954595f4d494e54456044820152601160fa1b60648201526084016104a7565b610ce08a8a611b4c565b610cec86868a8a61170b565b8115610d1657600854610d12906001600160701b0380821691600160701b90041661164e565b600b555b604080518581526020810185905233917f4c209b5fc8ad50758f13e2e1088ba56a560dff690a1c6fef26394f4c03821c4f910160405180910390a250506001600c5550949695505050505050565b600080600c54600114610d895760405162461bcd60e51b81526004016104a790611f4b565b6000600c81905580610d99610959565b506006546007546040516370a0823160e01b81523060048201529395509193506001600160a01b039081169291169060009083906370a0823190602401602060405180830381865afa158015610df3573d6000803e3d6000fd5b505050506040513d601f19601f82011682018060405250810190610e179190611fbb565b6040516370a0823160e01b81523060048201529091506000906001600160a01b038416906370a0823190602401602060405180830381865afa158015610e61573d6000803e3d6000fd5b505050506040513d601f19601f82011682018060405250810190610e859190611fbb565b30600090815260016020526040812054919250610ea2888861199f565b60005490915080610eb3848761164e565b610ebd9190612017565b9a5080610eca848661164e565b610ed49190612017565b995060008b118015610ee6575060008a115b610f3c5760405162461bcd60e51b815260206004820152602160248201527f4c503a20494e53554646494349454e545f4c49515549444954595f4255524e456044820152601160fa1b60648201526084016104a7565b610f463084611bf3565b610f51878d8d61150d565b610f5c868d8c61150d565b6040516370a0823160e01b81523060048201526001600160a01b038816906370a0823190602401602060405180830381865afa158015610fa0573d6000803e3d6000fd5b505050506040513d601f19601f82011682018060405250810190610fc49190611fbb565b6040516370a0823160e01b81523060048201529095506001600160a01b038716906370a0823190602401602060405180830381865afa15801561100b573d6000803e3d6000fd5b505050506040513d601f19601f8201168201806040525081019061102f9190611fbb565b935061103d85858b8b61170b565b811561106757600854611063906001600160701b0380821691600160701b90041661164e565b600b555b604080518c8152602081018c90526001600160a01b038e169133917fdccd412f0b1252819cb1fd330b93224ca42612892bb3f4f789976e6d81936496910160405180910390a35050505050505050506001600c81905550915091565b60006109903384846118f9565b600c546001146110f25760405162461bcd60e51b81526004016104a790611f4b565b6000600c556006546007546008546040516370a0823160e01b81523060048201526001600160a01b03938416939092169161118d9184918691611188916001600160701b039091169084906370a08231906024015b602060405180830381865afa158015611164573d6000803e3d6000fd5b505050506040513d601f19601f820116820180604052508101906108679190611fbb565b61150d565b6008546040516370a0823160e01b81523060048201526111da918391869161118891600160701b9091046001600160701b0316906001600160a01b038516906370a0823190602401611147565b50506001600c5550565b428410156112225760405162461bcd60e51b815260206004820152600b60248201526a13140e881156141254915160aa1b60448201526064016104a7565b6003546001600160a01b038816600090815260046020526040812080549192917f6e71edae12b1b97f4d1f60370fef10105fa2faae0126114a169c64845d6126c9918b918b918b9190876112758361202b565b909155506040805160208101969096526001600160a01b0394851690860152929091166060840152608083015260a082015260c0810187905260e001604051602081830303815290604052805190602001206040516020016112ee92919061190160f01b81526002810192909252602282015260420190565b60408051601f198184030181528282528051602091820120600080855291840180845281905260ff88169284019290925260608301869052608083018590529092509060019060a0016020604051602081039080840390855afa158015611359573d6000803e3d6000fd5b5050604051601f1901519150506001600160a01b0381161580159061138f5750886001600160a01b0316816001600160a01b0316145b6113d35760405162461bcd60e51b81526020600482015260156024820152744c503a20494e56414c49445f5349474e415455524560581b60448201526064016104a7565b6113de898989611897565b505050505050505050565b600c5460011461140b5760405162461bcd60e51b81526004016104a790611f4b565b6000600c556006546040516370a0823160e01b8152306004820152611506916001600160a01b0316906370a0823190602401602060405180830381865afa15801561145a573d6000803e3d6000fd5b505050506040513d601f19601f8201168201806040525081019061147e9190611fbb565b6007546040516370a0823160e01b81523060048201526001600160a01b03909116906370a0823190602401602060405180830381865afa1580156114c6573d6000803e3d6000fd5b505050506040513d601f19601f820116820180604052508101906114ea9190611fbb565b6008546001600160701b0380821691600160701b90041661170b565b6001600c55565b604080518082018252601981527f7472616e7366657228616464726573732c75696e74323536290000000000000060209182015281516001600160a01b0385811660248301526044808301869052845180840390910181526064909201845291810180516001600160e01b031663a9059cbb60e01b179052915160009283928716916115999190612046565b6000604051808303816000865af19150503d80600081146115d6576040519150601f19603f3d011682016040523d82523d6000602084013e6115db565b606091505b50915091508180156116055750805115806116055750808060200190518101906116059190612062565b6116475760405162461bcd60e51b815260206004820152601360248201527213140e881514905394d1915497d19052531151606a1b60448201526064016104a7565b5050505050565b6000811580611672575082826116648183612084565b92506116709083612017565b145b6109945760405162461bcd60e51b815260206004820152601460248201527364732d6d6174682d6d756c2d6f766572666c6f7760601b60448201526064016104a7565b6000826116c28382611fea565b91508111156109945760405162461bcd60e51b815260206004820152601560248201527464732d6d6174682d7375622d756e646572666c6f7760581b60448201526064016104a7565b600061171c640100000000426120a3565b60085490915060009061173c90600160e01b900463ffffffff16836120b7565b905060008163ffffffff1611801561175c57506001600160701b03841615155b801561177057506001600160701b03831615155b156117ff578063ffffffff166117988561178986611c7d565b6001600160e01b031690611c96565b6001600160e01b03166117ab9190612084565b600960008282546117bc91906120dc565b909155505063ffffffff81166117d58461178987611c7d565b6001600160e01b03166117e89190612084565b600a60008282546117f991906120dc565b90915550505b6008805463ffffffff8416600160e01b026001600160e01b036001600160701b03898116600160701b9081026001600160e01b03199095168c83161794909417918216831794859055604080519382169282169290921783529290930490911660208201527f1c411e9a96e071241c2f21f7726b17ae89e3cab4c78be50e062b03a9fffbbad1910160405180910390a1505050505050565b6001600160a01b0383811660008181526002602090815260408083209487168084529482529182902085905590518481527f8c5be1e5ebec7d5bd14f71427d1e84f3dd0314c0f7b2291e5b200ac8c7c3b92591015b60405180910390a3505050565b6001600160a01b03831660009081526001602052604090205461191c90826116b5565b6001600160a01b03808516600090815260016020526040808220939093559084168152205461194b9082611cab565b6001600160a01b0380841660008181526001602052604090819020939093559151908516907fdd~f252ad1be2c89b69c2b068fc378daa952ba7f163c4a11628f55a4df523b3ef906118ec9085815260200190565b600080600560009054906101000a90046001600160a01b03166001600160a01b031663017e7e586040518163ffffffff1660e01b8152600401602060405180830381865afa1580156119f5573d6000803e3d6000fd5b505050506040513d601f19601f82011682018060405250810190611a1991906120f4565b600b546001600160a01b038216158015945091925090611ac8578015611ac3576000611a54610c1c6001600160701b0388811690881661164e565b90506000611a6183611adc565b905080821115611ac0576000611a83611a7a84846116b5565b6000549061164e565b90506000611a9c83611a9686600561164e565b90611cab565b90506000611aaa8284612017565b90508015611abc57611abc8782611b4c565b5050505b50505b611ad4565b8015611ad4576000600b555b505092915050565b60006003821115611b3d5750806000611af6600283612017565b611b019060016120dc565b90505b81811015611b3757905080600281611b1c8186612017565b611b2691906120dc565b611b309190612017565b9050611b04565b50919050565b8115611b47575060015b919050565b600054611b599082611cab565b60009081556001600160a01b038316815260016020526040902054611b7e9082611cab565b6001600160a01b0383166000818152600160205260408082209390935591519091907fddf252ad1be2c89b69c2b068fc378daa952ba7f163c4a11628f55a4df523b3ef90611bcf9085815260200190565b60405180910390a35050565b6000818310611bea5781611bec565b825b9392505050565b6001600160a01b038216600090815260016020526040902054611c1690826116b5565b6001600160a01b03831660009081526001602052604081209190915554611c3d90826116b5565b60009081556040518281526001600160a01b038416907fddf252ad1be2c89b69c2b068fc378daa952ba7f163c4a11628f55a4df523b3ef90602001611bcf565b6000610994600160701b6001600160701b038416612111565b6000611bec6001600160701b03831684612140565b600082611cb883826120dc565b91508110156109945760405162461bcd60e51b815260206004820152601460248201527364732d6d6174682d6164642d6f766572666c6f7760601b60448201526064016104a7565b6001600160a01b0381168114611d1557600080fd5b50565b600080600080600060808688031215611d3057600080fd5b85359450602086013593506040860135611d4981611d00565b9250606086013567ffffffffffffffff80821115611d6657600080fd5b818801915088601f830112611d7a57600080fd5b813581811115611d8957600080fd5b896020828501011115611d9b57600080fd5b9699959850939650602001949392505050565b60005b83811015611dc9578181015183820152602001611db1565b83811115611dd8576000848401525b50505050565b6020815260008251806020840152611dfd816040850160208701611dae565b601f01601f19169190910160400192915050565b60008060408385031215611e2457600080fd5b8235611e2f81611d00565b946020939093013593505050565b600080600060608486031215611e5257600080fd5b8335611e5d81611d00565b92506020840135611e6d81611d00565b929592945050506040919091013590565b60008060408385031215611e9157600080fd5b8235611e9c81611d00565b91506020830135611eac81611d00565b809150509250929050565b600060208284031215611ec957600080fd5b8135611bec81611d00565b600080600080600080600060e0888a031215611eef57600080fd5b8735611efa81611d00565b96506020880135611f0a81611d00565b95506040880135945060608801359350608088013560ff81168114611f2e57600080fd5b9699959850939692959460a0840135945060c09093013592915050565b6020808252600a908201526913140e881313d0d2d15160b21b604082015260600190565b60018060a01b038616815284602082015283604082015260806060820152816080820152818360a0830137600081830160a090810191909152601f909201601f19160101949350505050565b600060208284031215611fcd57600080fd5b5051919050565b634e487b7160e01b600052601160045260246000fd5b600082821015611ffc57611ffc611fd4565b500390565b634e487b7160e01b600052601260045260246000fd5b60008261202657612026612001565b500490565b600060001982141561203f5761203f611fd4565b5060010190565b60008251612058818460208701611dae565b9190910192915050565b60006020828403121561207457600080fd5b81518015158114611bec57600080fd5b600081600019048311821515161561209e5761209e611fd4565b500290565b6000826120b2576120b2612001565b500690565b600063ffffffff838116908316818110156120d4576120d4611fd4565b039392505050565b600082198211156120ef576120ef611fd4565b500190565b60006020828403121561210657600080fd5b8151611bec81611d00565b60006001600160e01b038281168482168115158284048211161561213757612137611fd4565b02949350505050565b60006001600160e01b038381168061215a5761215a612001565b9216919091049291505056fea2646970667358221220fb6768a44eec9f511480b4d9a641cb56896dc62e9d7be48e8a4c114e1fbf731b64736f6c634300080c0033",
  "linkReferences": {},
  "deployedLinkReferences": {}
}